{
  "_format": "hh-sol-artifact-1",
  "contractName": "OriginalityFactory",
  "sourceName": "contracts/OriginalityFactory.sol",
  "abi": [
    {
      "inputs": [],
      "stateMutability": "nonpayable",
      "type": "constructor"
    },
    {
      "inputs": [
        {
          "internalType": "address",
          "name": "",
          "type": "address"
        }
      ],
      "name": "ALREADY_REGISTERED",
      "type": "error"
    },
    {
      "inputs": [],
      "name": "CONTRACT_DOEST_NOT_EXIST",
      "type": "error"
    },
    {
      "inputs": [],
      "name": "ECDSAInvalidSignature",
      "type": "error"
    },
    {
      "inputs": [
        {
          "internalType": "uint256",
          "name": "length",
          "type": "uint256"
        }
      ],
      "name": "ECDSAInvalidSignatureLength",
      "type": "error"
    },
    {
      "inputs": [
        {
          "internalType": "bytes32",
          "name": "s",
          "type": "bytes32"
        }
      ],
      "name": "ECDSAInvalidSignatureS",
      "type": "error"
    },
    {
      "inputs": [],
      "name": "INVALID_SIGNATURE",
      "type": "error"
    },
    {
      "inputs": [],
      "name": "InvalidShortString",
      "type": "error"
    },
    {
      "inputs": [
        {
          "internalType": "string",
          "name": "",
          "type": "string"
        }
      ],
      "name": "NANE_ALREADY_EXIST",
      "type": "error"
    },
    {
      "inputs": [
        {
          "internalType": "address",
          "name": "",
          "type": "address"
        }
      ],
      "name": "ONLY_OWNER",
      "type": "error"
    },
    {
      "inputs": [
        {
          "internalType": "string",
          "name": "str",
          "type": "string"
        }
      ],
      "name": "StringTooLong",
      "type": "error"
    },
    {
      "anonymous": false,
      "inputs": [],
      "name": "EIP712DomainChanged",
      "type": "event"
    },
    {
      "anonymous": false,
      "inputs": [
        {
          "indexed": true,
          "internalType": "address",
          "name": "manufacturerAddress",
          "type": "address"
        },
        {
          "indexed": true,
          "internalType": "address",
          "name": "manufacturerContract",
          "type": "address"
        }
      ],
      "name": "ManufacturerRegistered",
      "type": "event"
    },
    {
      "inputs": [],
      "name": "eip712Domain",
      "outputs": [
        {
          "internalType": "bytes1",
          "name": "fields",
          "type": "bytes1"
        },
        {
          "internalType": "string",
          "name": "name",
          "type": "string"
        },
        {
          "internalType": "string",
          "name": "version",
          "type": "string"
        },
        {
          "internalType": "uint256",
          "name": "chainId",
          "type": "uint256"
        },
        {
          "internalType": "address",
          "name": "verifyingContract",
          "type": "address"
        },
        {
          "internalType": "bytes32",
          "name": "salt",
          "type": "bytes32"
        },
        {
          "internalType": "uint256[]",
          "name": "extensions",
          "type": "uint256[]"
        }
      ],
      "stateMutability": "view",
      "type": "function"
    },
    {
      "inputs": [
        {
          "internalType": "address",
          "name": "expectedManufacturer",
          "type": "address"
        }
      ],
      "name": "getManufacturerAddress",
      "outputs": [
        {
          "internalType": "address",
          "name": "",
          "type": "address"
        }
      ],
      "stateMutability": "view",
      "type": "function"
    },
    {
      "inputs": [
        {
          "internalType": "string",
          "name": "name",
          "type": "string"
        }
      ],
      "name": "manufacturerRegisters",
      "outputs": [],
      "stateMutability": "nonpayable",
      "type": "function"
    },
    {
      "inputs": [
        {
          "internalType": "address",
          "name": "manufacturer",
          "type": "address"
        }
      ],
      "name": "manufacturers",
      "outputs": [
        {
          "internalType": "string",
          "name": "name",
          "type": "string"
        },
        {
          "internalType": "address",
          "name": "manufacturerContract",
          "type": "address"
        },
        {
          "internalType": "address",
          "name": "manufacturerAddress",
          "type": "address"
        }
      ],
      "stateMutability": "view",
      "type": "function"
    },
    {
      "inputs": [
        {
          "internalType": "address",
          "name": "expectedOwner",
          "type": "address"
        },
        {
          "components": [
            {
              "internalType": "string",
              "name": "name",
              "type": "string"
            },
            {
              "internalType": "string",
              "name": "uniqueId",
              "type": "string"
            },
            {
              "internalType": "string",
              "name": "serial",
              "type": "string"
            },
            {
              "internalType": "uint256",
              "name": "date",
              "type": "uint256"
            },
            {
              "internalType": "address",
              "name": "owner",
              "type": "address"
            },
            {
              "internalType": "string[]",
              "name": "metadata",
              "type": "string[]"
            }
          ],
          "internalType": "struct IEri.Certificate",
          "name": "certificate",
          "type": "tuple"
        },
        {
          "internalType": "bytes",
          "name": "signature",
          "type": "bytes"
        }
      ],
      "name": "verifySignature",
      "outputs": [
        {
          "internalType": "bool",
          "name": "",
          "type": "bool"
        }
      ],
      "stateMutability": "view",
      "type": "function"
    }
  ],
  "bytecode": "0x61016060405234801561001157600080fd5b50604080518082018252600f81526e086cae4e8d2ccd2c6c2e8ca82eae8d608b1b602080830191909152825180840190935260018352603160f81b908301529061005c826000610106565b6101205261006b816001610106565b61014052815160208084019190912060e052815190820120610100524660a0526100f860e05161010051604080517f8b73c3c69bb8fe3d512ecc4cf759cc79239f7b179b0ffacaa9a75d522b39400f60208201529081019290925260608201524660808201523060a082015260009060c00160405160208183030381529060405280519060200120905090565b60805250503060c05261034f565b60006020835110156101225761011b83610139565b9050610133565b8161012d848261021f565b5060ff90505b92915050565b600080829050601f8151111561016d578260405163305a27a960e01b815260040161016491906102dd565b60405180910390fd5b80516101788261032b565b179392505050565b634e487b7160e01b600052604160045260246000fd5b600181811c908216806101aa57607f821691505b6020821081036101ca57634e487b7160e01b600052602260045260246000fd5b50919050565b601f82111561021a57806000526020600020601f840160051c810160208510156101f75750805b601f840160051c820191505b818110156102175760008155600101610203565b50505b505050565b81516001600160401b0381111561023857610238610180565b61024c816102468454610196565b846101d0565b6020601f82116001811461028057600083156102685750848201515b600019600385901b1c1916600184901b178455610217565b600084815260208120601f198516915b828110156102b05787850151825560209485019460019092019101610290565b50848210156102ce5786840151600019600387901b60f8161c191681555b50505050600190811b01905550565b602081526000825180602084015260005b8181101561030b57602081860181015160408684010152016102ee565b506000604082850101526040601f19601f83011684010191505092915050565b805160208083015191908110156101ca5760001960209190910360031b1b16919050565b60805160a05160c05160e0516101005161012051610140516114006103a960003960006106d2015260006106a0015260006108f5015260006108cd01526000610828015260006108520152600061087c01526114006000f3fe608060405234801561001057600080fd5b50600436106100675760003560e01c80636b5eb09c116100505780636b5eb09c146100b157806384b0196e146100d357806393e38dcb146100ee57600080fd5b806302cd46a41461006c5780632c1ffa131461009c575b600080fd5b61007f61007a366004610c1f565b610111565b6040516001600160a01b0390911681526020015b60405180910390f35b6100af6100aa366004610d2a565b6101ea565b005b6100c46100bf366004610c1f565b610437565b60405161009393929190610daf565b6100db6104ee565b6040516100939796959493929190610de2565b6101016100fc366004610f3e565b610550565b6040519015158152602001610093565b600080610139836001600160a01b039081166000908152600260205260409020600101541690565b90506001600160a01b03811661017b576040517f1ef92a6500000000000000000000000000000000000000000000000000000000815260040160405180910390fd5b6000819050806001600160a01b031663893d20e86040518163ffffffff1660e01b8152600401602060405180830381865afa1580156101be573d6000803e3d6000fd5b505050506040513d601f19601f820116820180604052508101906101e2919061108c565b949350505050565b3380610232576040517f7b2a09300000000000000000000000000000000000000000000000000000000081526001600160a01b03821660048201526024015b60405180910390fd5b33600081815260026020819052604090912001546001600160a01b03161580159061027957506001600160a01b038181166000908152600260205260409020600101541615155b156102b2576040517f49c6a07a000000000000000000000000000000000000000000000000000000008152336004820152602401610229565b60006001600160a01b03166003846040516102cd91906110a9565b908152604051908190036020019020546001600160a01b03161461031f57826040517f9ad2cdca00000000000000000000000000000000000000000000000000000000815260040161022991906110c5565b60008160405161032e90610bea565b6001600160a01b039091168152602001604051809103906000f08015801561035a573d6000803e3d6000fd5b503360009081526002602081905260409091206001810180546001600160a01b0380861673ffffffffffffffffffffffffffffffffffffffff199283161790925592820180549187169190931617909155909150806103b98682611161565b50826003866040516103cb91906110a9565b90815260405190819003602001812080546001600160a01b0393841673ffffffffffffffffffffffffffffffffffffffff19909116179055838216918516907f44ccec44e14d9e3f82b3582af8384ea6d5e19a42f427392a0a7503889e9c7be990600090a35050505050565b600260205260009081526040902080548190610452906110d8565b80601f016020809104026020016040519081016040528092919081815260200182805461047e906110d8565b80156104cb5780601f106104a0576101008083540402835291602001916104cb565b820191906000526020600020905b8154815290600101906020018083116104ae57829003601f168201915b50505050600183015460029093015491926001600160a01b039081169216905083565b600060608060008060006060610502610699565b61050a6106cb565b604080516000808252602082019092527f0f000000000000000000000000000000000000000000000000000000000000009b939a50919850469750309650945092509050565b6000808360a001516040516020016105689190611220565b60408051808303601f190181528282528051602091820120875180519083012088830151805190840120898501518051908501206060808c01516080808e01517f1d62f707996bec2e68227adde500d923521c8e72658f98eee315781c94cf5956898c01528a8a01969096529189019390935287015260a08601526001600160a01b031660c085015260e08085018290528351808603909101815261010090940190925282519201919091209091506000610622826106f8565b905060006106308287610746565b9050600061063d89610111565b9050806001600160a01b0316826001600160a01b03161461068a576040517fa3402a3800000000000000000000000000000000000000000000000000000000815260040160405180910390fd5b50600198975050505050505050565b60606106c67f00000000000000000000000000000000000000000000000000000000000000006000610770565b905090565b60606106c67f00000000000000000000000000000000000000000000000000000000000000006001610770565b600061074061070561081b565b836040517f19010000000000000000000000000000000000000000000000000000000000008152600281019290925260228201526042902090565b92915050565b6000806000806107568686610946565b9250925092506107668282610993565b5090949350505050565b606060ff831461078a5761078383610a9b565b9050610740565b818054610796906110d8565b80601f01602080910402602001604051908101604052809291908181526020018280546107c2906110d8565b801561080f5780601f106107e45761010080835404028352916020019161080f565b820191906000526020600020905b8154815290600101906020018083116107f257829003601f168201915b50505050509050610740565b6000306001600160a01b037f00000000000000000000000000000000000000000000000000000000000000001614801561087457507f000000000000000000000000000000000000000000000000000000000000000046145b1561089e57507f000000000000000000000000000000000000000000000000000000000000000090565b6106c6604080517f8b73c3c69bb8fe3d512ecc4cf759cc79239f7b179b0ffacaa9a75d522b39400f60208201527f0000000000000000000000000000000000000000000000000000000000000000918101919091527f000000000000000000000000000000000000000000000000000000000000000060608201524660808201523060a082015260009060c00160405160208183030381529060405280519060200120905090565b600080600083516041036109805760208401516040850151606086015160001a61097288828585610ada565b95509550955050505061098c565b50508151600091506002905b9250925092565b60008260038111156109a7576109a7611285565b036109b0575050565b60018260038111156109c4576109c4611285565b036109fb576040517ff645eedf00000000000000000000000000000000000000000000000000000000815260040160405180910390fd5b6002826003811115610a0f57610a0f611285565b03610a49576040517ffce698f700000000000000000000000000000000000000000000000000000000815260048101829052602401610229565b6003826003811115610a5d57610a5d611285565b03610a97576040517fd78bce0c00000000000000000000000000000000000000000000000000000000815260048101829052602401610229565b5050565b60606000610aa883610ba9565b604080516020808252818301909252919250600091906020820181803683375050509182525060208101929092525090565b600080807f7fffffffffffffffffffffffffffffff5d576e7357a4501ddfe92f46681b20a0841115610b155750600091506003905082610b9f565b604080516000808252602082018084528a905260ff891692820192909252606081018790526080810186905260019060a0016020604051602081039080840390855afa158015610b69573d6000803e3d6000fd5b5050604051601f1901519150506001600160a01b038116610b9557506000925060019150829050610b9f565b9250600091508190505b9450945094915050565b600060ff8216601f811115610740576040517fb3512b0c00000000000000000000000000000000000000000000000000000000815260040160405180910390fd5b61012f8061129c83390190565b6001600160a01b0381168114610c0c57600080fd5b50565b8035610c1a81610bf7565b919050565b600060208284031215610c3157600080fd5b8135610c3c81610bf7565b9392505050565b634e487b7160e01b600052604160045260246000fd5b60405160c0810167ffffffffffffffff81118282101715610c7c57610c7c610c43565b60405290565b604051601f8201601f1916810167ffffffffffffffff81118282101715610cab57610cab610c43565b604052919050565b600082601f830112610cc457600080fd5b81356020830160008067ffffffffffffffff841115610ce557610ce5610c43565b50601f8301601f1916602001610cfa81610c82565b915050828152858383011115610d0f57600080fd5b82826020830137600092810160200192909252509392505050565b600060208284031215610d3c57600080fd5b813567ffffffffffffffff811115610d5357600080fd5b6101e284828501610cb3565b60005b83811015610d7a578181015183820152602001610d62565b50506000910152565b60008151808452610d9b816020860160208601610d5f565b601f01601f19169290920160200192915050565b606081526000610dc26060830186610d83565b6001600160a01b0394851660208401529290931660409091015292915050565b7fff000000000000000000000000000000000000000000000000000000000000008816815260e060208201526000610e1d60e0830189610d83565b8281036040840152610e2f8189610d83565b606084018890526001600160a01b038716608085015260a0840186905283810360c08501528451808252602080870193509091019060005b81811015610e85578351835260209384019390920191600101610e67565b50909b9a5050505050505050505050565b600082601f830112610ea757600080fd5b813567ffffffffffffffff811115610ec157610ec1610c43565b8060051b610ed160208201610c82565b91825260208185018101929081019086841115610eed57600080fd5b6020860192505b83831015610f3457823567ffffffffffffffff811115610f1357600080fd5b610f22886020838a0101610cb3565b83525060209283019290910190610ef4565b9695505050505050565b600080600060608486031215610f5357600080fd5b8335610f5e81610bf7565b9250602084013567ffffffffffffffff811115610f7a57600080fd5b840160c08187031215610f8c57600080fd5b610f94610c59565b813567ffffffffffffffff811115610fab57600080fd5b610fb788828501610cb3565b825250602082013567ffffffffffffffff811115610fd457600080fd5b610fe088828501610cb3565b602083015250604082013567ffffffffffffffff81111561100057600080fd5b61100c88828501610cb3565b6040830152506060828101359082015261102860808301610c0f565b608082015260a082013567ffffffffffffffff81111561104757600080fd5b61105388828501610e96565b60a083015250925050604084013567ffffffffffffffff81111561107657600080fd5b61108286828701610cb3565b9150509250925092565b60006020828403121561109e57600080fd5b8151610c3c81610bf7565b600082516110bb818460208701610d5f565b9190910192915050565b602081526000610c3c6020830184610d83565b600181811c908216806110ec57607f821691505b60208210810361110c57634e487b7160e01b600052602260045260246000fd5b50919050565b601f82111561115c57806000526020600020601f840160051c810160208510156111395750805b601f840160051c820191505b818110156111595760008155600101611145565b50505b505050565b815167ffffffffffffffff81111561117b5761117b610c43565b61118f8161118984546110d8565b84611112565b6020601f8211600181146111c357600083156111ab5750848201515b600019600385901b1c1916600184901b178455611159565b600084815260208120601f198516915b828110156111f357878501518255602094850194600190920191016111d3565b50848210156112115786840151600019600387901b60f8161c191681555b50505050600190811b01905550565b6000602082016020835280845180835260408501915060408160051b86010192506020860160005b8281101561127957603f19878603018452611264858351610d83565b94506020938401939190910190600101611248565b50929695505050505050565b634e487b7160e01b600052602160045260246000fdfe60a0604052348015600f57600080fd5b5060405161012f38038061012f833981016040819052602c91603c565b6001600160a01b0316608052606a565b600060208284031215604d57600080fd5b81516001600160a01b0381168114606357600080fd5b9392505050565b60805160ad6100826000396000602f015260ad6000f3fe6080604052348015600f57600080fd5b506004361060285760003560e01c8063893d20e814602d575b600080fd5b7f000000000000000000000000000000000000000000000000000000000000000060405173ffffffffffffffffffffffffffffffffffffffff909116815260200160405180910390f3fea2646970667358221220ebce01a756c080c38d704f6643f37cb66e741a19bff216584a760bd76d427ebb64736f6c634300081d0033a264697066735822122093e8f8e10a7281d710331548a9259acf3d458763596e69a0e413884fb348539864736f6c634300081d0033",
  "linkReferences": {},
  "deployedLinkReferences": {}
}